{
    "contractName": "Election",
    "abi": [
        {
            "inputs": [],
            "stateMutability": "nonpayable",
            "type": "constructor"
        },
        {
            "anonymous": false,
            "inputs": [
                {
                    "indexed": false,
                    "internalType": "address",
                    "name": "voter",
                    "type": "address"
                },
                {
                    "indexed": false,
                    "internalType": "bool",
                    "name": "status",
                    "type": "bool"
                },
                {
                    "indexed": false,
                    "internalType": "uint256",
                    "name": "count",
                    "type": "uint256"
                }
            ],
            "name": "AddedToRegVoters",
            "type": "event"
        },
        {
            "anonymous": false,
            "inputs": [
                {
                    "indexed": false,
                    "internalType": "uint256",
                    "name": "id",
                    "type": "uint256"
                },
                {
                    "indexed": false,
                    "internalType": "string",
                    "name": "name",
                    "type": "string"
                },
                {
                    "indexed": false,
                    "internalType": "string",
                    "name": "party",
                    "type": "string"
                },
                {
                    "indexed": false,
                    "internalType": "uint256",
                    "name": "voteCount",
                    "type": "uint256"
                }
            ],
            "name": "CandidateCreated",
            "type": "event"
        },
        {
            "anonymous": false,
            "inputs": [
                {
                    "indexed": false,
                    "internalType": "uint256",
                    "name": "id",
                    "type": "uint256"
                },
                {
                    "indexed": false,
                    "internalType": "string",
                    "name": "name",
                    "type": "string"
                },
                {
                    "indexed": false,
                    "internalType": "bool",
                    "name": "hasVoted",
                    "type": "bool"
                },
                {
                    "indexed": false,
                    "internalType": "address",
                    "name": "voter",
                    "type": "address"
                }
            ],
            "name": "VoteCast",
            "type": "event"
        },
        {
            "anonymous": false,
            "inputs": [
                {
                    "indexed": false,
                    "internalType": "address",
                    "name": "voter",
                    "type": "address"
                }
            ],
            "name": "Voted",
            "type": "event"
        },
        {
            "anonymous": false,
            "inputs": [
                {
                    "indexed": false,
                    "internalType": "uint256",
                    "name": "id",
                    "type": "uint256"
                },
                {
                    "indexed": false,
                    "internalType": "string",
                    "name": "name",
                    "type": "string"
                },
                {
                    "indexed": false,
                    "internalType": "address",
                    "name": "voter",
                    "type": "address"
                }
            ],
            "name": "VoterCreated",
            "type": "event"
        },
        {
            "inputs": [],
            "name": "candidateCount",
            "outputs": [
                {
                    "internalType": "uint256",
                    "name": "",
                    "type": "uint256"
                }
            ],
            "stateMutability": "view",
            "type": "function",
            "constant": true
        },
        {
            "inputs": [
                {
                    "internalType": "uint256",
                    "name": "",
                    "type": "uint256"
                }
            ],
            "name": "candidates",
            "outputs": [
                {
                    "internalType": "uint256",
                    "name": "id",
                    "type": "uint256"
                },
                {
                    "internalType": "string",
                    "name": "name",
                    "type": "string"
                },
                {
                    "internalType": "string",
                    "name": "party",
                    "type": "string"
                },
                {
                    "internalType": "uint256",
                    "name": "voteCount",
                    "type": "uint256"
                }
            ],
            "stateMutability": "view",
            "type": "function",
            "constant": true
        },
        {
            "inputs": [],
            "name": "name",
            "outputs": [
                {
                    "internalType": "string",
                    "name": "",
                    "type": "string"
                }
            ],
            "stateMutability": "view",
            "type": "function",
            "constant": true
        },
        {
            "inputs": [
                {
                    "internalType": "address",
                    "name": "",
                    "type": "address"
                }
            ],
            "name": "regVoters",
            "outputs": [
                {
                    "internalType": "bool",
                    "name": "",
                    "type": "bool"
                }
            ],
            "stateMutability": "view",
            "type": "function",
            "constant": true
        },
        {
            "inputs": [],
            "name": "registeredCount",
            "outputs": [
                {
                    "internalType": "uint256",
                    "name": "",
                    "type": "uint256"
                }
            ],
            "stateMutability": "view",
            "type": "function",
            "constant": true
        },
        {
            "inputs": [],
            "name": "totalVotes",
            "outputs": [
                {
                    "internalType": "uint256",
                    "name": "",
                    "type": "uint256"
                }
            ],
            "stateMutability": "view",
            "type": "function",
            "constant": true
        },
        {
            "inputs": [
                {
                    "internalType": "address",
                    "name": "",
                    "type": "address"
                }
            ],
            "name": "voted",
            "outputs": [
                {
                    "internalType": "bool",
                    "name": "",
                    "type": "bool"
                }
            ],
            "stateMutability": "view",
            "type": "function",
            "constant": true
        },
        {
            "inputs": [],
            "name": "voterCount",
            "outputs": [
                {
                    "internalType": "uint256",
                    "name": "",
                    "type": "uint256"
                }
            ],
            "stateMutability": "view",
            "type": "function",
            "constant": true
        },
        {
            "inputs": [
                {
                    "internalType": "uint256",
                    "name": "",
                    "type": "uint256"
                }
            ],
            "name": "voters",
            "outputs": [
                {
                    "internalType": "uint256",
                    "name": "id",
                    "type": "uint256"
                },
                {
                    "internalType": "string",
                    "name": "name",
                    "type": "string"
                },
                {
                    "internalType": "address",
                    "name": "voter",
                    "type": "address"
                }
            ],
            "stateMutability": "view",
            "type": "function",
            "constant": true
        },
        {
            "inputs": [
                {
                    "internalType": "address",
                    "name": "_address",
                    "type": "address"
                }
            ],
            "name": "addToRegVoters",
            "outputs": [],
            "stateMutability": "nonpayable",
            "type": "function"
        },
        {
            "inputs": [
                {
                    "internalType": "string",
                    "name": "_name",
                    "type": "string"
                },
                {
                    "internalType": "string",
                    "name": "_party",
                    "type": "string"
                }
            ],
            "name": "createCandidate",
            "outputs": [],
            "stateMutability": "nonpayable",
            "type": "function"
        },
        {
            "inputs": [
                {
                    "internalType": "string",
                    "name": "_name",
                    "type": "string"
                }
            ],
            "name": "createVoter",
            "outputs": [],
            "stateMutability": "nonpayable",
            "type": "function"
        },
        {
            "inputs": [
                {
                    "internalType": "uint256",
                    "name": "_candidateId",
                    "type": "uint256"
                }
            ],
            "name": "castVote",
            "outputs": [],
            "stateMutability": "nonpayable",
            "type": "function"
        }
    ],
    "bytecode": "0x6080604052600060015560006002556000600355600060045534801561002457600080fd5b5033600560006101000a81548173ffffffffffffffffffffffffffffffffffffffff021916908373ffffffffffffffffffffffffffffffffffffffff16021790555061167f806100756000396000f3fe608060405234801561001057600080fd5b50600436106100ce5760003560e01c806340e62c421161008c578063a9a981a311610066578063a9a981a3146104ef578063aec2ccae1461050d578063b9ce795f14610567578063da58c7d914610622576100ce565b806340e62c421461033b57806342169e481461037f5780639ab1c0ed1461039d576100ce565b806242c438146100d357806306fdde031461012d5780630d15fd77146101b0578063210ff9bb146101ce5780633477ee2e146101ec5780633eb76b9c1461030d575b600080fd5b610115600480360360208110156100e957600080fd5b81019080803573ffffffffffffffffffffffffffffffffffffffff1690602001909291905050506106ed565b60405180821515815260200191505060405180910390f35b61013561070d565b6040518080602001828103825283818151815260200191508051906020019080838360005b8381101561017557808201518184015260208101905061015a565b50505050905090810190601f1680156101a25780820380516001836020036101000a031916815260200191505b509250505060405180910390f35b6101b86107ab565b6040518082815260200191505060405180910390f35b6101d66107b1565b6040518082815260200191505060405180910390f35b6102186004803603602081101561020257600080fd5b81019080803590602001909291905050506107b7565b604051808581526020018060200180602001848152602001838103835286818151815260200191508051906020019080838360005b8381101561026857808201518184015260208101905061024d565b50505050905090810190601f1680156102955780820380516001836020036101000a031916815260200191505b50838103825285818151815260200191508051906020019080838360005b838110156102ce5780820151818401526020810190506102b3565b50505050905090810190601f1680156102fb5780820380516001836020036101000a031916815260200191505b50965050505050505060405180910390f35b6103396004803603602081101561032357600080fd5b8101908080359060200190929190505050610917565b005b61037d6004803603602081101561035157600080fd5b81019080803573ffffffffffffffffffffffffffffffffffffffff169060200190929190505050610d8b565b005b610387610f66565b6040518082815260200191505060405180910390f35b6104ed600480360360408110156103b357600080fd5b81019080803590602001906401000000008111156103d057600080fd5b8201836020820111156103e257600080fd5b8035906020019184600183028401116401000000008311171561040457600080fd5b91908080601f016020809104026020016040519081016040528093929190818152602001838380828437600081840152601f19601f8201169050808301925050505050505091929192908035906020019064010000000081111561046757600080fd5b82018360208201111561047957600080fd5b8035906020019184600183028401116401000000008311171561049b57600080fd5b91908080601f016020809104026020016040519081016040528093929190818152602001838380828437600081840152601f19601f820116905080830192505050505050509192919290505050610f6c565b005b6104f7611152565b6040518082815260200191505060405180910390f35b61054f6004803603602081101561052357600080fd5b81019080803573ffffffffffffffffffffffffffffffffffffffff169060200190929190505050611158565b60405180821515815260200191505060405180910390f35b6106206004803603602081101561057d57600080fd5b810190808035906020019064010000000081111561059a57600080fd5b8201836020820111156105ac57600080fd5b803590602001918460018302840111640100000000831117156105ce57600080fd5b91908080601f016020809104026020016040519081016040528093929190818152602001838380828437600081840152601f19601f820116905080830192505050505050509192919290505050611178565b005b61064e6004803603602081101561063857600080fd5b8101908080359060200190929190505050611494565b60405180848152602001806020018373ffffffffffffffffffffffffffffffffffffffff168152602001828103825284818151815260200191508051906020019080838360005b838110156106b0578082015181840152602081019050610695565b50505050905090810190601f1680156106dd5780820380516001836020036101000a031916815260200191505b5094505050505060405180910390f35b60086020528060005260406000206000915054906101000a900460ff1681565b60008054600181600116156101000203166002900480601f0160208091040260200160405190810160405280929190818152602001828054600181600116156101000203166002900480156107a35780601f10610778576101008083540402835291602001916107a3565b820191906000526020600020905b81548152906001019060200180831161078657829003601f168201915b505050505081565b60015481565b60045481565b6006602052806000526040600020600091509050806000015490806001018054600181600116156101000203166002900480601f0160208091040260200160405190810160405280929190818152602001828054600181600116156101000203166002900480156108695780601f1061083e57610100808354040283529160200191610869565b820191906000526020600020905b81548152906001019060200180831161084c57829003601f168201915b505050505090806002018054600181600116156101000203166002900480601f0160208091040260200160405190810160405280929190818152602001828054600181600116156101000203166002900480156109075780601f106108dc57610100808354040283529160200191610907565b820191906000526020600020905b8154815290600101906020018083116108ea57829003601f168201915b5050505050908060030154905084565b60008111801561092957506002548111155b61099b576040517f08c379a00000000000000000000000000000000000000000000000000000000081526004018080602001828103825260118152602001807f696e76616c69642063616e64696461746500000000000000000000000000000081525060200191505060405180910390fd5b60011515600860003373ffffffffffffffffffffffffffffffffffffffff1673ffffffffffffffffffffffffffffffffffffffff16815260200190815260200160002060009054906101000a900460ff16151514610a61576040517f08c379a00000000000000000000000000000000000000000000000000000000081526004018080602001828103825260168152602001807f72656769737465726174696f6e2072657175697265640000000000000000000081525060200191505060405180910390fd5b60001515600960003373ffffffffffffffffffffffffffffffffffffffff1673ffffffffffffffffffffffffffffffffffffffff16815260200190815260200160002060009054906101000a900460ff16151514610b27576040517f08c379a00000000000000000000000000000000000000000000000000000000081526004018080602001828103825260168152602001807f796f75206861766520616c726561647920766f7465640000000000000000000081525060200191505060405180910390fd5b610b2f611576565b6006600083815260200190815260200160002060405180608001604052908160008201548152602001600182018054600181600116156101000203166002900480601f016020809104026020016040519081016040528092919081815260200182805460018160011615610100020316600290048015610bf05780601f10610bc557610100808354040283529160200191610bf0565b820191906000526020600020905b815481529060010190602001808311610bd357829003601f168201915b50505050508152602001600282018054600181600116156101000203166002900480601f016020809104026020016040519081016040528092919081815260200182805460018160011615610100020316600290048015610c925780601f10610c6757610100808354040283529160200191610c92565b820191906000526020600020905b815481529060010190602001808311610c7557829003601f168201915b50505050508152602001600382015481525050905060018160600151018160600181815250506001600081548092919060010191905055506001600960003373ffffffffffffffffffffffffffffffffffffffff1673ffffffffffffffffffffffffffffffffffffffff16815260200190815260200160002060006101000a81548160ff0219169083151502179055508060066000848152602001908152602001600020600082015181600001556020820151816001019080519060200190610d5c92919061159e565b506040820151816002019080519060200190610d7992919061159e565b50606082015181600301559050505050565b600860008273ffffffffffffffffffffffffffffffffffffffff1673ffffffffffffffffffffffffffffffffffffffff16815260200190815260200160002060009054906101000a900460ff1615610e4b576040517f08c379a00000000000000000000000000000000000000000000000000000000081526004018080602001828103825260128152602001807f616c72656164792072656769737465726564000000000000000000000000000081525060200191505060405180910390fd5b600960008273ffffffffffffffffffffffffffffffffffffffff1673ffffffffffffffffffffffffffffffffffffffff16815260200190815260200160002060009054906101000a900460ff1615610f0b576040517f08c379a00000000000000000000000000000000000000000000000000000000081526004018080602001828103825260138152602001807f796f75766520616c726561647920766f7465640000000000000000000000000081525060200191505060405180910390fd5b6001600860008373ffffffffffffffffffffffffffffffffffffffff1673ffffffffffffffffffffffffffffffffffffffff16815260200190815260200160002060006101000a81548160ff02191690831515021790555050565b60035481565b60008251118015610f7e575060008151115b610f8757600080fd5b600560025410610f9657600080fd5b60026000815480929190600101919050555060405180608001604052806002548152602001838152602001828152602001600081525060066000600254815260200190815260200160002060008201518160000155602082015181600101908051906020019061100792919061159e565b50604082015181600201908051906020019061102492919061159e565b50606082015181600301559050507f570595435028d665dcca90df26d4edd4ebdf957f2ff4bf38454eb0eef4472c0460025483836000604051808581526020018060200180602001848152602001838103835286818151815260200191508051906020019080838360005b838110156110aa57808201518184015260208101905061108f565b50505050905090810190601f1680156110d75780820380516001836020036101000a031916815260200191505b50838103825285818151815260200191508051906020019080838360005b838110156111105780820151818401526020810190506110f5565b50505050905090810190601f16801561113d5780820380516001836020036101000a031916815260200191505b50965050505050505060405180910390a15050565b60025481565b60096020528060005260406000206000915054906101000a900460ff1681565b60008151116111ef576040517f08c379a00000000000000000000000000000000000000000000000000000000081526004018080602001828103825260188152602001807f6e616d652069732061207265717569726564206669656c64000000000000000081525060200191505060405180910390fd5b60001515600860003373ffffffffffffffffffffffffffffffffffffffff1673ffffffffffffffffffffffffffffffffffffffff16815260200190815260200160002060009054906101000a900460ff1615151461124c57600080fd5b600360008154809291906001019190505550604051806060016040528060035481526020018281526020013373ffffffffffffffffffffffffffffffffffffffff168152506007600060035481526020019081526020016000206000820151816000015560208201518160010190805190602001906112cc92919061159e565b5060408201518160020160006101000a81548173ffffffffffffffffffffffffffffffffffffffff021916908373ffffffffffffffffffffffffffffffffffffffff16021790555090505061132033610d8b565b7fab5476551ea3865d7fe4ae73b97acfd3bf40cabf56f8493a8d1888e21ac249ef600354823360405180848152602001806020018373ffffffffffffffffffffffffffffffffffffffff168152602001828103825284818151815260200191508051906020019080838360005b838110156113a857808201518184015260208101905061138d565b50505050905090810190601f1680156113d55780820380516001836020036101000a031916815260200191505b5094505050505060405180910390a17f592a4a65dde081b26d635e75639ed0e163cdca8d3bc056cfe0a1985e9c233b2b33600860003373ffffffffffffffffffffffffffffffffffffffff1673ffffffffffffffffffffffffffffffffffffffff16815260200190815260200160002060009054906101000a900460ff16600454604051808473ffffffffffffffffffffffffffffffffffffffff1681526020018315158152602001828152602001935050505060405180910390a150565b6007602052806000526040600020600091509050806000015490806001018054600181600116156101000203166002900480601f0160208091040260200160405190810160405280929190818152602001828054600181600116156101000203166002900480156115465780601f1061151b57610100808354040283529160200191611546565b820191906000526020600020905b81548152906001019060200180831161152957829003601f168201915b5050505050908060020160009054906101000a900473ffffffffffffffffffffffffffffffffffffffff16905083565b6040518060800160405280600081526020016060815260200160608152602001600081525090565b828054600181600116156101000203166002900490600052602060002090601f0160209004810192826115d4576000855561161b565b82601f106115ed57805160ff191683800117855561161b565b8280016001018555821561161b579182015b8281111561161a5782518255916020019190600101906115ff565b5b509050611628919061162c565b5090565b5b8082111561164557600081600090555060010161162d565b509056fea2646970667358221220193e65590f879bb7b5c08db7e54f6227d94458903d6b015be97e55e4fd51d4d964736f6c63430007040033",
    "immutableReferences": {},
    "source": "\n//SPDX-License-Identifier: MIT\n\npragma solidity >0.5.0 <0.8.0;\n\ncontract Election {\n\n    string public name;\n    uint public totalVotes = 0;\n    uint public candidateCount = 0;\n    uint public voterCount = 0;\n    uint public registeredCount = 0;\n    address payable owner;\n    mapping(uint => Candidate) public candidates;\n    mapping(uint => Voter) public voters;\n    mapping(address => bool) public regVoters;\n    mapping(address => bool) public voted;\n\n    struct Candidate {\n        uint id;\n        string name;\n        string party;\n        uint voteCount;\n    }\n\n    struct Voter {\n        uint id;\n        string name;\n        address voter;\n    }\n\n    event VoteCast(\n        uint id,\n        string name,\n        bool hasVoted,\n        address voter\n    );\n\n    event VoterCreated(\n        uint id,\n        string name,\n        address voter\n    );\n\n    event CandidateCreated(\n        uint id,\n        string name,\n        string party,\n        uint voteCount\n    );\n\n    event AddedToRegVoters(\n        address voter,\n        bool status,\n        uint count\n    );\n\n    event Voted(\n        address voter\n    );\n\n    constructor() {\n        owner = msg.sender;\n    }\n\n    modifier onlyOwner {\n        require(msg.sender == owner);\n        _;\n    }\n\n    modifier notRegestered {\n        require(!regVoters[msg.sender]);\n        _;\n    }\n\n    function addToRegVoters(address _address) public {\n        require(!regVoters[_address], 'already registered');\n        require(!voted[_address], 'youve already voted');\n        regVoters[_address] = true;\n        \n    }\n\n    function createCandidate(string memory _name, string memory _party) public {\n        require(bytes(_name).length > 0 && bytes(_party).length > 0);\n        require(candidateCount < 5);\n\n        candidateCount++;\n\n        candidates[candidateCount] = Candidate(candidateCount, _name, _party, 0);      \n\n        emit CandidateCreated(candidateCount, _name, _party, 0);\n    }\n\n    function createVoter(string memory _name) public {\n\n        require(bytes(_name).length > 0, 'name is a required field');\n\n        require(regVoters[msg.sender] == false);\n \n        voterCount++;\n\n        voters[voterCount] = Voter(voterCount, _name, msg.sender);\n\n        addToRegVoters(msg.sender);\n\n        emit VoterCreated(voterCount, _name, msg.sender);\n        \n        emit AddedToRegVoters(msg.sender, regVoters[msg.sender], registeredCount);\n    }\n\n    function castVote(uint _candidateId) public {\n        require( _candidateId > 0 && _candidateId <= candidateCount, 'invalid candidate');\n        require(regVoters[msg.sender] == true, 'registeration required');\n        require(voted[msg.sender] == false, 'you have already voted');\n        \n        Candidate memory _candidate = candidates[_candidateId];\n\n        _candidate.voteCount = _candidate.voteCount + 1;\n        \n        totalVotes++;\n        \n        voted[msg.sender] = true;\n        \n        candidates[_candidateId] = _candidate;\n\n    }\n}",
    "sourcePath": "/home/aely/social-network/src/contracts/Election.sol",
    "compiler": {
        "name": "solc",
        "version": "0.7.4+commit.3f05b770.Emscripten.clang"
    },
    "schemaVersion": "3.3.1",
    "updatedAt": "2020-11-10T04:50:52.910Z",
    "networkType": "ethereum",
    "devdoc": {
        "kind": "dev",
        "methods": {},
        "version": 1
    },
    "userdoc": {
        "kind": "user",
        "methods": {},
        "version": 1
    }
}